:040000000DEF00F010
:0400080039EF18F0C4
:06001800FF0034EF19F0B7
:102E000000EC2F000000001E320000E43300000040
:102E100000000000000000000000000000000000B2
:102E2000000000000000000000B03394337833004D
:092E300000546573740D0A0000E2
:102E3A003B50020D600EF324D96E050EF420DA6EB3
:102E4A00DE6ADD6A0201B2A72DEF17F02FEF17F045
:102E5A004EEF17F03B50020D600EF324D96E050EAB
:102E6A00F420DA6E0501DF822E502F10D8B440EF1D
:102E7A0017F042EF17F04EEF17F002D84EEF17F0A7
:102E8A000500FA6E2E50FD6E2F50FE6EFF6AFA5044
:102E9A0012000201B2A354EF17F056EF17F075EFC4
:102EAA0017F03B50020D600EF324D96E050EF42084
:102EBA00DA6E0501DF842C502D10D8B467EF17F0B5
:102ECA0069EF17F075EF17F002D875EF17F00500E4
:102EDA00FA6E2C50FD6E2D50FE6EFF6AFA501200EB
:102EEA00A1C201F53B283F0B026E3A500218D8A442
:102EFA0081EF17F083EF17F085EF17F090EF17F0D7
:102F0A00000E3B24D96EDA6A060EDA2201C5DFF416
:102F1A0002C53BF5392A12000A500B10D8B498EFB3
:102F2A0017F09AEF17F0A3EF17F00A500B10D8A476
:102F3A00A1EF17F0A3EF17F0A8EF17F00850ADECC8
:102F4A0019F0F5EF17F020EE09F00A50D9260B50C8
:102F5A00DA22DE50DE10D8B4B5EF17F0B7EF17F06B
:102F6A00D2EF17F020EE09F00A50D9260B50DA22D8
:102F7A0010EE02F00A50E1260B50E222DE50E65C27
:102F8A00E650800A106EDE50800A1058D8B0D0EF92
:102F9A0017F0D2EF17F0F5EF17F020EE02F00A5013
:102FAA00D9260B50DA22DEC40CF5DDC40DF50AC5AC
:102FBA00D9F40BC5DAF4DEC40EF5DDC40FF50C50F6
:102FCA000E24D96E0D500F20DA6E08C5DFF420EEFC
:102FDA0002F00A50D9260B50DA22DE2A000EDD2230
:102FEA001200A2903A0E3F6E2E0E406EA292A00ED2
:102FFA00416E320E426E0201A16BA26BA36BA46BEF
:10300A00A56BA66BA76BA86BA96BAA6BB00EAB6F6F
:10301A00800EAC6F080EAD6F8A0EAE6FAF6B2E0EC0
:10302A00B06FB16B800EB26FB36B2C0E056E340E9F
:10303A00066ED8EC19F02A0E056E340E066ECAEC2E
:10304A0019F0000E056E000E066EBCEC19F0000EAB
:10305A00316E000E306E3E6A3D6A400E3C6E3B6A2F
:10306A003A6A396AA2801200FAC403F5FBC404F56D
:10307A00A2A242EF18F044EF18F059EF18F0B2A2EA
:10308A0049EF18F04BEF18F059EF18F002D857EF44
:10309A0018F00500FA6E4150FD6E4250FE6EFF6A4E
:1030AA00FA50120073EF18F0A2A05EEF18F060EF6A
:1030BA0018F073EF18F0B2A065EF18F067EF18F088
:1030CA0073EF18F002D873EF18F00500FA6E3F504C
:1030DA00FD6E4050FE6EFF6AFA50120004C5FBF402
:1030EA0003C5FAF4110013C5D9F414C5DAF4DFC420
:1030FA00F6F42E0EF76EF86A0800F550250AD8A4E1
:10310A0089EF18F08BEF18F09FEF18F013C5D9F478
:10311A0014C5DAF4DF2A000E236E000E226E22C5D1
:10312A0038F52468256813C5D9F414C5DAF4DF2AFA
:10313A00B4EF18F013C5D9F414C5DAF4DFC4F6F401
:10314A002E0EF76EF86A0800F550086E096A11C566
:10315A000AF512C50BF591EC17F098EF18F012006A
:10316A00BE6ABF6AC06A0401026B0A6B126BC66848
:10317A00EF0EC76EC868080ECA6E0069CF0E086FD8
:10318A001069016B096B116B216B03690B69136978
:10319A0004690C691469080E246F0201896B886B33
:1031AA00876B866B0D0E726F200E0D6F0401056B17
:1031BA00066B076B0D6B0E6B0F6B156B166B176B34
:1031CA00256B266B276B120019C51CF5FBEF18F04F
:1031DA0017C511F518C512F51C0E136E050E146EDF
:1031EA001AC515F51BC516F578EC18F01CC5F6F4CA
:1031FA002E0EF76EF86A0800F5500009D8A408EFF9
:10320A0019F00AEF19F0EDEF18F0000E186E000E23
:10321A00176E1200066EA2B215EF19F017EF19F029
:10322A001BEF19F006C5A3F232EF19F03C50D8B4DF
:10323A0021EF19F023EF19F032EF19F0400E3E2476
:10324A00D96EDA6A060EDA2206C5DFF43E283F0B8B
:10325A00056E05C53EF5A2923C06A282120001EE59
:10326A0000F2800EEE6AE806FDE101EE60F1A00EC2
:10327A00EE6AE806FDE101EE22F11D0EEE6AE806AD
:10328A00FDE10401080E5D6F000E5E6F000E5F6FB8
:10329A00000185EF19F0400E3C6056EF19F058EF27
:1032AA0019F069EF19F0400E3D24D96EDA6A060E5C
:1032BA00DA22DF500201A36F3D283F0B016E01C5E0
:1032CA003DF53C2A6AEF19F0A2921200D69AAF9005
:1032DA00D680000E056E000E066E10EC1AF0B49041
:1032EA00D682000E056E000E066E0BEC1AF0B89030
:1032FA00D684000E056E000E066E06EC1AF0120059
:10330A00FDEC19F0D68E310E1D6E9CEC19F0520EA2
:10331A00216E2B0E206E000EE82EFED7202EFCD733
:10332A00212EFAD700D088EF19F00DEF00F01E0E0B
:10333A001E6E050E1F6E000E176E000E186E1DC54E
:10334A0019F51E0E1A6E050E1B6EE9EC18F0120026
:10335A00076EF2EC19F00009D8B4B6EF19F0B8EF1D
:10336A0019F0AEEF19F007500FEC19F012000550E2
:10337A000610D8B4C3EF19F0C5EF19F0C9EF19F068
:10338A0005C52AF506C52BF5120005500610D8B456
:10339A00D1EF19F0D3EF19F0D7EF19F005C52CF5D5
:1033AA0006C52DF5120005500610D8B4DFEF19F046
:1033BA00E1EF19F0E5EF19F005C52EF506C52FF571
:1033CA001200600E0001AD6FAF6BB36B080EB16FE8
:1033DA00B06BAC6B0401586B12003C50D8A4F8EFE8
:1033EA0019F0FBEF19F0010EFCEF19F0000E1200B4
:1033FA00E6EC19F0B5EC18F0F6EC17F06BEC19F0F6
:10340A00120005C532F506C533F5120005C534F5B7
:10341A0006C535F5120005C536F506C537F512009D
:04342A00120012007A
:020000040030CA
:100000008FEFF7FF9FFFFFFFFFFFFFFFFFFFFFFFE8
:10001000FFFFFFFFFFFFFFFFFFFFFFFFFFFFFFFFF0
:03002000FFFFFFE0
:00000001FF
