:04000000FEEF7FF0A0
:102E00000000BE6ABF6AC06A0401026B0A6B126BE3
:102E1000C668C768C868080ECA6E00690869106984
:102E2000016B096B116B216B03690B6913690469F1
:102E30000C691469080E246F0201896B886B876B1B
:102E4000866B0401056B066B076B0D6B0E6B0F6BCE
:102E5000156B166B176B256B266B276B1200D69ABA
:102E6000AF90D680000E076E000E086E71EC17F062
:102E7000B490D682000E076E000E086E6CEC17F050
:102E8000B890D684000E076E000E086E67EC17F03F
:102E90001200600E0001AD6FAF6BB36B080EB16F27
:102EA000B06BAC6B0401586B120049EC17F001ECED
:102EB00017F02FEC17F0120055EC17F05EEF17F03B
:102EC000FEEF7FF0000EF86E00015CEF17F007C513
:102ED00001F508C502F5120007C503F508C504F59C
:0C2EE000120007C505F508C506F5120034
:04FFFC0062EF17F0A9
:020000040030CA
:100000008FEFF7FF9FFFFFFFFFFFFFFFFFFFFFFFE8
:10001000FFFFFFFFFFFFFFFFFFFFFFFFFFFFFFFFF0
:03002000FFFFFFE0
:00000001FF
