:040000000DEF00F010
:04000800F1EF18F00C
:06001800FF002FEF1BF0BA
:102E0000001C3400000000D03500000E3800000027
:102E100000000000000000000000000000000000B2
:102E2000000000000000000000DA37BE37A23700C3
:102E300000524130204144433A2025640D0A0000ED
:102E400013C5D9F414C5DAF4DFC4F6F42E0EF76E08
:102E5000F86A0800F550250AD8A431EF17F033EFCF
:102E600017F002EF18F013C5D9F414C5DAF4DF2A0D
:102E7000000E306E000E2F6E2FC549F53168326896
:102E800013C5D9F414C5DAF4DF501A6E1AC5F6F476
:102E90002E0EF76EF86A0800F550640AD8B453EFA6
:102EA00017F055EF17F064EF17F01AC5F6F42E0E71
:102EB000F76EF86A0800F550690AD8A462EF17F0B7
:102EC00064EF17F0FBEF17F015C5D9F416C5DAF467
:102ED000DFC417F5020EDE26DFC418F5000EDD2272
:102EE00017C5D9F418C5DAF4DEC41BF5DDC41CF52A
:102EF0001A2813C5D9F414C5DAF4DF6E200E1F6E3C
:102F00001CBE85EF17F088EF17F0010E89EF17F060
:102F1000000E196E1F06E00E1F24D96EDA6A050E28
:102F2000DA221BC505F51CC506F5000E086E0A0E53
:102F3000076EB7EC19F005C50BF506C50CF566EC88
:102F40001BF00B50300FDF6E1BC505F51CC506F5D9
:102F5000000E086E0A0E076E56EC19F005C51BF53B
:102F600006C51CF51B501C10D8B4B9EF17F0BBEF09
:102F700017F0C3EF17F01F50D8A4C1EF17F0C3EF3D
:102F800017F08AEF17F01F50D8B4C9EF17F0CBEF46
:102F900017F0F0EF17F01950D8B4D1EF17F0D3EFC6
:102FA00017F0F0EF17F01F06E00E1F24D96EDA6A53
:102FB000050EDA222D0EDF6EF0EF17F0E00E1F2463
:102FC000D96EDA6A050EDA22DF50176E1750086ED6
:102FD000096A11C50AF512C50BF58CEC18F01F2A09
:102FE000200E1F18D8A4F7EF17F0F9EF17F0DEEF57
:102FF00017F017EF18F013C5D9F414C5DAF4DF2A67
:1030000017EF18F013C5D9F414C5DAF4DFC4F6F4D9
:103010002E0EF76EF86A0800F550086E096A11C5A1
:103020000AF512C50BF58CEC18F0FBEF17F0120047
:103030004C50020D600EF324D96E050EF420DA6EAA
:10304000DE6ADD6A0201B2A728EF18F02AEF18F055
:1030500049EF18F04C50020D600EF324D96E050EA6
:10306000F420DA6E0501DF823B503C10D8B43BEF10
:1030700018F03DEF18F049EF18F002D849EF18F0BA
:103080000500FA6E3B50FD6E3C50FE6EFF6AFA5032
:1030900012000201B2A34FEF18F051EF18F070EFD9
:1030A00018F04C50020D600EF324D96E050EF4207A
:1030B000DA6E0501DF8439503A10D8B462EF18F0A7
:1030C00064EF18F070EF18F002D870EF18F00500F8
:1030D000FA6E3950FD6E3A50FE6EFF6AFA501200D9
:1030E000A1C201F54C283F0B026E4B500218D8A428
:1030F0007CEF18F07EEF18F080EF18F08BEF18F0EF
:10310000000E4C24D96EDA6A060EDA2201C5DFF40D
:1031100002C54CF54A2A12000A500B10D8B493EF9E
:1031200018F095EF18F09EEF18F00A500B10D8A485
:103130009CEF18F09EEF18F0A3EF18F00850C2ECC7
:103140001BF0F0EF18F020EE09F00A50D9260B50D2
:10315000DA22DE50DE10D8B4B0EF18F0B2EF18F07B
:10316000CDEF18F020EE09F00A50D9260B50DA22E4
:1031700010EE02F00A50E1260B50E222DE50E65C2F
:10318000E650800A106EDE50800A1058D8B0CBEF9F
:1031900018F0CDEF18F0F0EF18F020EE02F00A5022
:1031A000D9260B50DA22DEC40CF5DDC40DF50AC5B4
:1031B000D9F40BC5DAF4DEC40EF5DDC40FF50C50FE
:1031C0000E24D96E0D500F20DA6E08C5DFF420EE04
:1031D00002F00A50D9260B50DA22DE2A000EDD2238
:1031E0001200FAC403F5FBC404F5A2A2FAEF18F02A
:1031F000FCEF18F011EF19F0B2A201EF19F003EF94
:1032000019F011EF19F002D80FEF19F00500FA6E5E
:103210005350FD6E5450FE6EFF6AFA50120051EF8B
:1032200019F0A2A016EF19F018EF19F02DEF19F010
:10323000B2A01DEF19F01FEF19F02DEF19F002D811
:103240002BEF19F00500FA6E5150FD6E5250FE6ED4
:10325000FF6AFA50120051EF19F09FA432EF19F0F3
:1032600034EF19F03FEF19F0AFA439EF19F03BEF4D
:1032700019F03FEF19F02CEC1CF051EF19F0A0A061
:1032800044EF19F046EF19F051EF19F0B0A04BEFF1
:1032900019F04DEF19F051EF19F02EEC1CF051EF31
:1032A00019F004C5FBF403C5FAF411000A6A08BE5C
:1032B0005EEF19F05CEF19F064EF19F0076C081E6F
:1032C000D8B0082A010E0A6E06BE6BEF19F069EF3E
:1032D00019F071EF19F0056C061ED8B0062A010E20
:1032E0000A1A000E0C6E000E0B6E07500810D8B4B0
:1032F0007CEF19F07EEF19F0A6EF19F0010E096EC0
:1033000086EF19F0D89007360836092A08AE8BEFF9
:1033100019F08DEF19F082EF19F0D8900B360C36BA
:103320000750055C08500658D8A099EF19F09BEF9C
:1033300019F0A0EF19F00750055E0850065A0B80EF
:10334000D89008320732092E8DEF19F00A50D8B400
:10335000ACEF19F0AEEF19F0B2EF19F00B6C0C1ED8
:10336000D8B00C2A0BC505F50CC506F512000A6A83
:1033700006BEBFEF19F0BDEF19F0C5EF19F0056CEF
:10338000061ED8B0062A010E0A6E08BECCEF19F050
:10339000CAEF19F0D0EF19F0076C081ED8B0082A50
:1033A00007500810D8B4D7EF19F0D9EF19F0FDEF96
:1033B00019F0010E096EE1EF19F0D89007360836C2
:1033C000092A08AEE6EF19F0E8EF19F0DDEF19F081
:1033D0000750055C08500658D8A0F1EF19F0F3EF3C
:1033E00019F0F7EF19F00750055E0850065AD8900B
:1033F00008320732092EE8EF19F00A50D8B403EF6B
:103400001AF005EF1AF009EF1AF0056C061ED8B095
:10341000062A05C505F506C506F51200A290300E70
:10342000516E300E526EA292960E536E360E546E40
:103430000201A16BA26BA36BA46BA56BA66BA76B20
:10344000A86BA96BAA6BB00EAB6F800EAC6F080EA9
:10345000AD6F8A0EAE6FAF6B2E0EB06FB16B800E7C
:10346000B26FB36B620E056E380E066EEDEC1BF09C
:10347000600E056E380E066EDFEC1BF0000E056E5A
:10348000000E066ED1EC1BF0000E3E6E000E3D6E7F
:103490004F6A4E6A400E4D6E4C6A4B6A4A6AA28071
:1034A00012000301F39FF96B1F0EFA6FD86BFB6BD1
:1034B000D96BDA6BDB6BDC6BDF6BE06BE36BE46BC4
:1034C000E56BE66B070EE76FEA6BEB6BEC6B100ED0
:1034D000EE6FEF6BF06B100EF16FF26BF39DC00EA1
:1034E000F46F3A0EF56F100EF66FF76BF86BFC6B1E
:1034F000506A000E476E000E486E000E456E000EBC
:10350000466EAF949F94B090A090B092A092B09469
:10351000A094B096A096840EF36F1200BE6ABF6AA4
:10352000C06A0401026B0A6B126BC668EF0EC76EAD
:10353000C868080ECA6E0069CF0E086F1069016B6B
:10354000096B116B216B03690B69136904690C69C1
:103550001469080E246F0201896B886B876B866B78
:103560000D0E726F200E0D6F0401056B066B076B5D
:103570000D6B0E6B0F6B156B166B176B256B266B3C
:10358000276B120022C525F5D4EF1AF020C511F5DE
:1035900021C512F5250E136E050E146E23C515F503
:1035A00024C516F520EC17F025C5F6F42E0EF76E9F
:1035B000F86A0800F5500009D8A4E1EF1AF0E3EF2B
:1035C0001AF0C6EF1AF0000E216E000E206E1200E7
:1035D000066EA2B2EEEF1AF0F0EF1AF0F4EF1AF066
:1035E00006C5A3F20BEF1BF04D50D8B4FAEF1AF05A
:1035F000FCEF1AF00BEF1BF0400E4F24D96EDA6A85
:10360000060EDA2206C5DFF44F283F0B056E05C50E
:103610004FF5A2924D06A282120012EC1CF0D68E3B
:10362000000E9AEC1BF005C52DF506C52EF5310EE2
:10363000266E2DC527F52EC528F5B1EC1BF0520ED0
:103640002C6E2B0E2B6E000EE82EFED72B2EFCD7E9
:103650002C2EFAD700D010EF1BF00DEF00F001EE8A
:1036600000F2800EEE6AE806FDE101EE60F1A00EC8
:10367000EE6AE806FDE101EE2FF1220EEE6AE806A1
:10368000FDE10401080E5D6F000E5E6F000E5F6FBE
:1036900000010DEF1BF0400E4D6051EF1BF053EF9A
:1036A0001BF064EF1BF0400E4E24D96EDA6A060E52
:1036B000DA22DF500201A36F4E283F0B016E01C5D5
:1036C0004EF54D2A65EF1BF0A29212000CBE6BEF77
:1036D0001BF06DEF1BF073EF1BF00BC50BF50CC56A
:1036E0000CF57FEF1BF00BC50DF50CC50EF50D1E8F
:1036F0000E1E0D4A0E2A0DC50BF50EC50CF5120057
:10370000D69AAF90D680000E056E000E066E27EC9E
:103710001CF0B490D682000E056E000E066E22ECF0
:103720001CF0B890D684000E056E000E066E1DECDF
:103730001CF01200096E09C5ECF30301F39DF3813F
:10374000F3B1A5EF1BF0A7EF1BF0A0EF1BF0EB51BF
:10375000086E076AEA510724056E000E0820066EFF
:103760001200270E296E050E2A6E000E206E000E26
:10377000216E26C522F5290E236E050E246EC2EC9D
:103780001AF01200076E07EC1CF00009D8B4CBEF5A
:103790001BF0CDEF1BF0C3EF1BF00750E8EC1AF065
:1037A000120005500610D8B4D8EF1BF0DAEF1BF06A
:1037B000DEEF1BF005C537F506C538F512000550DC
:1037C0000610D8B4E6EF1BF0E8EF1BF0ECEF1BF0AF
:1037D00005C539F506C53AF5120005500610D8B4EE
:1037E000F4EF1BF0F6EF1BF0FAEF1BF005C53BF50D
:1037F00006C53CF51200600E0001AD6FAF6BB36BF8
:10380000080EB16FB06BAC6B0401586B12004D50D9
:10381000D8A40DEF1CF010EF1CF0010E11EF1CF0FE
:10382000000E1200FBEC1BF08EEC1AF051EC1AF0BB
:103830000EEC1AF080EC1BF0120005C53FF506C532
:1038400040F5120005C541F506C542F5120005C553
:1038500043F506C544F51200AF941200B090120073
:043860001200120040
:020000040030CA
:100000008FEFF7FF9FFFFFFFFFFFFFFFFFFFFFFFE8
:10001000FFFFFFFFFFFFFFFFFFFFFFFFFFFFFFFFF0
:03002000FFFFFFE0
:00000001FF
